{
  "contractName": "Marketplace",
  "abi": [
    {
      "constant": true,
      "inputs": [
        {
          "name": "",
          "type": "uint256"
        }
      ],
      "name": "storeOwners",
      "outputs": [
        {
          "name": "",
          "type": "address"
        }
      ],
      "payable": false,
      "stateMutability": "view",
      "type": "function",
      "signature": "0x44d50993"
    },
    {
      "constant": true,
      "inputs": [
        {
          "name": "",
          "type": "address"
        },
        {
          "name": "",
          "type": "uint256"
        }
      ],
      "name": "stores",
      "outputs": [
        {
          "name": "name",
          "type": "bytes32"
        },
        {
          "name": "description",
          "type": "bytes32"
        }
      ],
      "payable": false,
      "stateMutability": "view",
      "type": "function",
      "signature": "0x54121c74"
    },
    {
      "constant": true,
      "inputs": [],
      "name": "contractPaused",
      "outputs": [
        {
          "name": "",
          "type": "bool"
        }
      ],
      "payable": false,
      "stateMutability": "view",
      "type": "function",
      "signature": "0x8a67456a"
    },
    {
      "constant": true,
      "inputs": [],
      "name": "owner",
      "outputs": [
        {
          "name": "",
          "type": "address"
        }
      ],
      "payable": false,
      "stateMutability": "view",
      "type": "function",
      "signature": "0x8da5cb5b"
    },
    {
      "constant": true,
      "inputs": [
        {
          "name": "",
          "type": "address"
        }
      ],
      "name": "roles",
      "outputs": [
        {
          "name": "",
          "type": "bytes32"
        }
      ],
      "payable": false,
      "stateMutability": "view",
      "type": "function",
      "signature": "0x99374642"
    },
    {
      "constant": true,
      "inputs": [
        {
          "name": "",
          "type": "address"
        },
        {
          "name": "",
          "type": "bytes32"
        }
      ],
      "name": "indexOfStores",
      "outputs": [
        {
          "name": "",
          "type": "uint256"
        }
      ],
      "payable": false,
      "stateMutability": "view",
      "type": "function",
      "signature": "0xd56242b8"
    },
    {
      "inputs": [],
      "payable": false,
      "stateMutability": "nonpayable",
      "type": "constructor",
      "signature": "constructor"
    },
    {
      "payable": false,
      "stateMutability": "nonpayable",
      "type": "fallback"
    },
    {
      "anonymous": false,
      "inputs": [
        {
          "indexed": false,
          "name": "adminAddress",
          "type": "address"
        },
        {
          "indexed": false,
          "name": "time",
          "type": "uint256"
        }
      ],
      "name": "AdminAdded",
      "type": "event",
      "signature": "0x723c2b747529ca7f5eb53a74808f4a8b9bf264f0fc450fd904900151da74548a"
    },
    {
      "anonymous": false,
      "inputs": [
        {
          "indexed": false,
          "name": "adminAddress",
          "type": "address"
        },
        {
          "indexed": false,
          "name": "time",
          "type": "uint256"
        }
      ],
      "name": "AdminRemoved",
      "type": "event",
      "signature": "0xa0726c73cf6ad18ddb855ba65d1ddd4d7fd37d320f4e52f6b154c13d386f5fd9"
    },
    {
      "anonymous": false,
      "inputs": [
        {
          "indexed": false,
          "name": "storeOwner",
          "type": "address"
        },
        {
          "indexed": false,
          "name": "time",
          "type": "uint256"
        }
      ],
      "name": "StoreOwnerAdded",
      "type": "event",
      "signature": "0x6343d38415903123f4b74ca53ee6cafecee6451c49b63fca067fccc8b15fc16b"
    },
    {
      "anonymous": false,
      "inputs": [
        {
          "indexed": false,
          "name": "storeOwner",
          "type": "address"
        },
        {
          "indexed": false,
          "name": "time",
          "type": "uint256"
        }
      ],
      "name": "StoreOwnerRemoved",
      "type": "event",
      "signature": "0x36f128fa2dab52c5654272f1fb2644c872ad1555e765f1f605a44a58c5bbb15e"
    },
    {
      "anonymous": false,
      "inputs": [
        {
          "indexed": false,
          "name": "storeOwner",
          "type": "address"
        },
        {
          "indexed": false,
          "name": "name",
          "type": "bytes32"
        },
        {
          "indexed": false,
          "name": "description",
          "type": "bytes32"
        },
        {
          "indexed": false,
          "name": "time",
          "type": "uint256"
        }
      ],
      "name": "StoreAdded",
      "type": "event",
      "signature": "0xa22349e7b72c520d7ceb3b64013fd847fe847844b7d747068118365eab3d6c47"
    },
    {
      "anonymous": false,
      "inputs": [
        {
          "indexed": false,
          "name": "storeOwner",
          "type": "address"
        },
        {
          "indexed": false,
          "name": "name",
          "type": "bytes32"
        },
        {
          "indexed": false,
          "name": "time",
          "type": "uint256"
        }
      ],
      "name": "StoreRemoved",
      "type": "event",
      "signature": "0x6166d19964a1d5558470383aa568ab96fd1ed9f9815f655ddc6ed34151033980"
    },
    {
      "anonymous": false,
      "inputs": [
        {
          "indexed": false,
          "name": "storeOwner",
          "type": "address"
        },
        {
          "indexed": false,
          "name": "storeName",
          "type": "bytes32"
        },
        {
          "indexed": false,
          "name": "productName",
          "type": "bytes32"
        },
        {
          "indexed": false,
          "name": "productDesc",
          "type": "bytes32"
        },
        {
          "indexed": false,
          "name": "price",
          "type": "uint256"
        },
        {
          "indexed": false,
          "name": "stockBalance",
          "type": "uint256"
        },
        {
          "indexed": false,
          "name": "time",
          "type": "uint256"
        }
      ],
      "name": "ProductAddedToStore",
      "type": "event",
      "signature": "0x2bb0908910770af9b10d6749760aa2bf54ffae739f78b7a8d61756171f50e8e0"
    },
    {
      "anonymous": false,
      "inputs": [
        {
          "indexed": false,
          "name": "storeOwner",
          "type": "address"
        },
        {
          "indexed": false,
          "name": "storeName",
          "type": "bytes32"
        },
        {
          "indexed": false,
          "name": "productName",
          "type": "bytes32"
        },
        {
          "indexed": false,
          "name": "time",
          "type": "uint256"
        }
      ],
      "name": "ProductRemovedFromStore",
      "type": "event",
      "signature": "0xbbf298111db6e4e6dd070303ff0baf8bf129e8049065d9c82f353d7b387d0f05"
    },
    {
      "anonymous": false,
      "inputs": [
        {
          "indexed": false,
          "name": "storeOwner",
          "type": "address"
        },
        {
          "indexed": false,
          "name": "buyer",
          "type": "address"
        },
        {
          "indexed": false,
          "name": "storeName",
          "type": "bytes32"
        },
        {
          "indexed": false,
          "name": "productName",
          "type": "bytes32"
        },
        {
          "indexed": false,
          "name": "purchaseQty",
          "type": "uint256"
        },
        {
          "indexed": false,
          "name": "time",
          "type": "uint256"
        }
      ],
      "name": "ProductPurchased",
      "type": "event",
      "signature": "0x4f86ba3281ea3d4318310eb5ec2094a84c90c2cc7887c3656e79e25a52c6e259"
    },
    {
      "anonymous": false,
      "inputs": [
        {
          "indexed": false,
          "name": "storeOwner",
          "type": "address"
        },
        {
          "indexed": false,
          "name": "amount",
          "type": "uint256"
        },
        {
          "indexed": false,
          "name": "time",
          "type": "uint256"
        }
      ],
      "name": "StoreOwnerWithdrawsBalance",
      "type": "event",
      "signature": "0x06463deacbbe4ae7986e0ea555225f9d230d7d867ab2ac625447bf6cc4500af2"
    },
    {
      "constant": false,
      "inputs": [],
      "name": "destroyContract",
      "outputs": [],
      "payable": false,
      "stateMutability": "nonpayable",
      "type": "function",
      "signature": "0x092a5cce"
    },
    {
      "constant": false,
      "inputs": [],
      "name": "circuitBreaker",
      "outputs": [],
      "payable": false,
      "stateMutability": "nonpayable",
      "type": "function",
      "signature": "0x16efd941"
    },
    {
      "constant": false,
      "inputs": [
        {
          "name": "newAdmin",
          "type": "address"
        }
      ],
      "name": "addAdmin",
      "outputs": [],
      "payable": false,
      "stateMutability": "nonpayable",
      "type": "function",
      "signature": "0x70480275"
    },
    {
      "constant": false,
      "inputs": [
        {
          "name": "admin",
          "type": "address"
        }
      ],
      "name": "removeAdmin",
      "outputs": [],
      "payable": false,
      "stateMutability": "nonpayable",
      "type": "function",
      "signature": "0x1785f53c"
    },
    {
      "constant": false,
      "inputs": [
        {
          "name": "newStoreOwner",
          "type": "address"
        }
      ],
      "name": "addStoreOwner",
      "outputs": [],
      "payable": false,
      "stateMutability": "nonpayable",
      "type": "function",
      "signature": "0x9adeb5f1"
    },
    {
      "constant": false,
      "inputs": [
        {
          "name": "storeOwner",
          "type": "address"
        }
      ],
      "name": "removeStoreOwner",
      "outputs": [],
      "payable": false,
      "stateMutability": "nonpayable",
      "type": "function",
      "signature": "0x6174fdd1"
    },
    {
      "constant": false,
      "inputs": [
        {
          "name": "_name",
          "type": "bytes32"
        },
        {
          "name": "_description",
          "type": "bytes32"
        }
      ],
      "name": "addStore",
      "outputs": [],
      "payable": false,
      "stateMutability": "nonpayable",
      "type": "function",
      "signature": "0x9d6e6abc"
    },
    {
      "constant": false,
      "inputs": [
        {
          "name": "name",
          "type": "bytes32"
        }
      ],
      "name": "removeStore",
      "outputs": [],
      "payable": false,
      "stateMutability": "nonpayable",
      "type": "function",
      "signature": "0x60cefa28"
    },
    {
      "constant": false,
      "inputs": [
        {
          "name": "_storeName",
          "type": "bytes32"
        },
        {
          "name": "_productName",
          "type": "bytes32"
        },
        {
          "name": "_productDesc",
          "type": "bytes32"
        },
        {
          "name": "_price",
          "type": "uint256"
        },
        {
          "name": "_stockBalance",
          "type": "uint256"
        }
      ],
      "name": "addProductToStore",
      "outputs": [],
      "payable": false,
      "stateMutability": "nonpayable",
      "type": "function",
      "signature": "0xd391b8bd"
    },
    {
      "constant": false,
      "inputs": [
        {
          "name": "_storeName",
          "type": "bytes32"
        },
        {
          "name": "_productName",
          "type": "bytes32"
        }
      ],
      "name": "removeProductFromStore",
      "outputs": [],
      "payable": false,
      "stateMutability": "nonpayable",
      "type": "function",
      "signature": "0x46cfe0bc"
    },
    {
      "constant": false,
      "inputs": [
        {
          "name": "_storeOwner",
          "type": "address"
        },
        {
          "name": "_storeName",
          "type": "bytes32"
        },
        {
          "name": "_productName",
          "type": "bytes32"
        },
        {
          "name": "_purchaseQty",
          "type": "uint256"
        }
      ],
      "name": "purchaseItem",
      "outputs": [],
      "payable": true,
      "stateMutability": "payable",
      "type": "function",
      "signature": "0x91fe7b74"
    },
    {
      "constant": false,
      "inputs": [],
      "name": "withdrawSalesBalance",
      "outputs": [],
      "payable": false,
      "stateMutability": "nonpayable",
      "type": "function",
      "signature": "0x35d05578"
    },
    {
      "constant": true,
      "inputs": [
        {
          "name": "_storeOwner",
          "type": "address"
        },
        {
          "name": "_nextIndex",
          "type": "uint256"
        }
      ],
      "name": "getAllOwnerStores",
      "outputs": [
        {
          "name": "",
          "type": "address"
        },
        {
          "name": "",
          "type": "bytes32[5]"
        },
        {
          "name": "",
          "type": "bytes32[5]"
        },
        {
          "name": "",
          "type": "uint256"
        },
        {
          "name": "",
          "type": "bool"
        }
      ],
      "payable": false,
      "stateMutability": "view",
      "type": "function",
      "signature": "0xbe9092d2"
    },
    {
      "constant": true,
      "inputs": [
        {
          "name": "_storeOwner",
          "type": "address"
        },
        {
          "name": "_storeName",
          "type": "bytes32"
        },
        {
          "name": "_nextIndex",
          "type": "uint256"
        }
      ],
      "name": "getProductsInStore",
      "outputs": [
        {
          "name": "",
          "type": "bytes32[5]"
        },
        {
          "name": "",
          "type": "uint256[5]"
        },
        {
          "name": "",
          "type": "uint256[5]"
        },
        {
          "name": "",
          "type": "uint256"
        },
        {
          "name": "",
          "type": "bool"
        }
      ],
      "payable": false,
      "stateMutability": "view",
      "type": "function",
      "signature": "0xff89ad91"
    },
    {
      "constant": true,
      "inputs": [
        {
          "name": "_storeOwner",
          "type": "address"
        },
        {
          "name": "_storeName",
          "type": "bytes32"
        }
      ],
      "name": "getStoreIndex",
      "outputs": [
        {
          "name": "",
          "type": "uint256"
        }
      ],
      "payable": false,
      "stateMutability": "view",
      "type": "function",
      "signature": "0xa1960e2a"
    }
  ],
  "bytecode": "0x60806040526000600660006101000a81548160ff02191690831515021790555034801561002b57600080fd5b50336000806101000a81548173ffffffffffffffffffffffffffffffffffffffff021916908373ffffffffffffffffffffffffffffffffffffffff1602179055507f4f776e6572000000000000000000000000000000000000000000000000000000600260003373ffffffffffffffffffffffffffffffffffffffff1673ffffffffffffffffffffffffffffffffffffffff16815260200190815260200160002081905550612aa3806100df6000396000f3fe60806040526004361061011d576000357c0100000000000000000000000000000000000000000000000000000000900463ffffffff168063092a5cce1461019857806316efd941146101af5780631785f53c146101c657806335d055781461021757806344d509931461022e57806346cfe0bc146102a957806354121c74146102ee57806360cefa28146103645780636174fdd11461039f57806370480275146103f05780638a67456a146104415780638da5cb5b1461047057806391fe7b74146104c757806399374642146105295780639adeb5f11461058e5780639d6e6abc146105df578063a1960e2a14610624578063be9092d214610693578063d391b8bd1461079e578063d56242b814610801578063ff89ad9114610870575b34801561012957600080fd5b506040517f08c379a00000000000000000000000000000000000000000000000000000000081526004018080602001828103825260158152602001807f496e76616c69642066756e6374696f6e2063616c6c000000000000000000000081525060200191505060405180910390fd5b3480156101a457600080fd5b506101ad610981565b005b3480156101bb57600080fd5b506101c46109bb565b005b3480156101d257600080fd5b50610215600480360360208110156101e957600080fd5b81019080803573ffffffffffffffffffffffffffffffffffffffff169060200190929190505050610a70565b005b34801561022357600080fd5b5061022c610c28565b005b34801561023a57600080fd5b506102676004803603602081101561025157600080fd5b8101908080359060200190929190505050610e66565b604051808273ffffffffffffffffffffffffffffffffffffffff1673ffffffffffffffffffffffffffffffffffffffff16815260200191505060405180910390f35b3480156102b557600080fd5b506102ec600480360360408110156102cc57600080fd5b810190808035906020019092919080359060200190929190505050610ea4565b005b3480156102fa57600080fd5b506103476004803603604081101561031157600080fd5b81019080803573ffffffffffffffffffffffffffffffffffffffff16906020019092919080359060200190929190505050611077565b604051808381526020018281526020019250505060405180910390f35b34801561037057600080fd5b5061039d6004803603602081101561038757600080fd5b81019080803590602001909291905050506110b7565b005b3480156103ab57600080fd5b506103ee600480360360208110156103c257600080fd5b81019080803573ffffffffffffffffffffffffffffffffffffffff16906020019092919050505061134c565b005b3480156103fc57600080fd5b5061043f6004803603602081101561041357600080fd5b81019080803573ffffffffffffffffffffffffffffffffffffffff16906020019092919050505061151f565b005b34801561044d57600080fd5b506104566116d7565b604051808215151515815260200191505060405180910390f35b34801561047c57600080fd5b506104856116ea565b604051808273ffffffffffffffffffffffffffffffffffffffff1673ffffffffffffffffffffffffffffffffffffffff16815260200191505060405180910390f35b610527600480360360808110156104dd57600080fd5b81019080803573ffffffffffffffffffffffffffffffffffffffff16906020019092919080359060200190929190803590602001909291908035906020019092919050505061170f565b005b34801561053557600080fd5b506105786004803603602081101561054c57600080fd5b81019080803573ffffffffffffffffffffffffffffffffffffffff169060200190929190505050611a1b565b6040518082815260200191505060405180910390f35b34801561059a57600080fd5b506105dd600480360360208110156105b157600080fd5b81019080803573ffffffffffffffffffffffffffffffffffffffff169060200190929190505050611a33565b005b3480156105eb57600080fd5b506106226004803603604081101561060257600080fd5b810190808035906020019092919080359060200190929190505050611c63565b005b34801561063057600080fd5b5061067d6004803603604081101561064757600080fd5b81019080803573ffffffffffffffffffffffffffffffffffffffff16906020019092919080359060200190929190505050611f5e565b6040518082815260200191505060405180910390f35b34801561069f57600080fd5b506106ec600480360360408110156106b657600080fd5b81019080803573ffffffffffffffffffffffffffffffffffffffff16906020019092919080359060200190929190505050611fda565b604051808673ffffffffffffffffffffffffffffffffffffffff1673ffffffffffffffffffffffffffffffffffffffff16815260200185600560200280838360005b8381101561074957808201518184015260208101905061072e565b5050505090500184600560200280838360005b8381101561077757808201518184015260208101905061075c565b50505050905001838152602001821515151581526020019550505050505060405180910390f35b3480156107aa57600080fd5b506107ff600480360360a08110156107c157600080fd5b810190808035906020019092919080359060200190929190803590602001909291908035906020019092919080359060200190929190505050612213565b005b34801561080d57600080fd5b5061085a6004803603604081101561082457600080fd5b81019080803573ffffffffffffffffffffffffffffffffffffffff16906020019092919080359060200190929190505050612507565b6040518082815260200191505060405180910390f35b34801561087c57600080fd5b506108d36004803603606081101561089357600080fd5b81019080803573ffffffffffffffffffffffffffffffffffffffff169060200190929190803590602001909291908035906020019092919050505061252c565b6040518086600560200280838360005b838110156108fe5780820151818401526020810190506108e3565b5050505090500185600560200280838360005b8381101561092c578082015181840152602081019050610911565b5050505090500184600560200280838360005b8381101561095a57808201518184015260208101905061093f565b50505050905001838152602001821515151581526020019550505050505060405180910390f35b6000809054906101000a900473ffffffffffffffffffffffffffffffffffffffff1673ffffffffffffffffffffffffffffffffffffffff16ff5b3373ffffffffffffffffffffffffffffffffffffffff166000809054906101000a900473ffffffffffffffffffffffffffffffffffffffff1673ffffffffffffffffffffffffffffffffffffffff16141515610a1657600080fd5b60001515600660009054906101000a900460ff1615151415610a52576001600660006101000a81548160ff021916908315150217905550610a6e565b6000600660006101000a81548160ff0219169083151502179055505b565b60001515600660009054906101000a900460ff161515141515610a9257600080fd5b6000809054906101000a900473ffffffffffffffffffffffffffffffffffffffff1673ffffffffffffffffffffffffffffffffffffffff163373ffffffffffffffffffffffffffffffffffffffff16141515610b56576040517f08c379a000000000000000000000000000000000000000000000000000000000815260040180806020018281038252600e8152602001807f4e6f7420617574686f72697a656400000000000000000000000000000000000081525060200191505060405180910390fd5b7f496e76616c696400000000000000000000000000000000000000000000000000600260008373ffffffffffffffffffffffffffffffffffffffff1673ffffffffffffffffffffffffffffffffffffffff168152602001908152602001600020819055507fa0726c73cf6ad18ddb855ba65d1ddd4d7fd37d320f4e52f6b154c13d386f5fd98143604051808373ffffffffffffffffffffffffffffffffffffffff1673ffffffffffffffffffffffffffffffffffffffff1681526020018281526020019250505060405180910390a150565b60001515600660009054906101000a900460ff161515141515610c4a57600080fd5b7f53746f72654f776e657200000000000000000000000000000000000000000000600260003373ffffffffffffffffffffffffffffffffffffffff1673ffffffffffffffffffffffffffffffffffffffff16815260200190815260200160002054141515610d20576040517f08c379a000000000000000000000000000000000000000000000000000000000815260040180806020018281038252600e8152602001807f4e6f7420417574686f72697a656400000000000000000000000000000000000081525060200191505060405180910390fd5b6000600560003373ffffffffffffffffffffffffffffffffffffffff1673ffffffffffffffffffffffffffffffffffffffff1681526020019081526020016000205490506000600560003373ffffffffffffffffffffffffffffffffffffffff1673ffffffffffffffffffffffffffffffffffffffff168152602001908152602001600020819055503373ffffffffffffffffffffffffffffffffffffffff166108fc829081150290604051600060405180830381858888f19350505050158015610def573d6000803e3d6000fd5b507f06463deacbbe4ae7986e0ea555225f9d230d7d867ab2ac625447bf6cc4500af2338243604051808473ffffffffffffffffffffffffffffffffffffffff1673ffffffffffffffffffffffffffffffffffffffff168152602001838152602001828152602001935050505060405180910390a150565b600181815481101515610e7557fe5b906000526020600020016000915054906101000a900473ffffffffffffffffffffffffffffffffffffffff1681565b60001515600660009054906101000a900460ff161515141515610ec657600080fd5b6000600360003373ffffffffffffffffffffffffffffffffffffffff1673ffffffffffffffffffffffffffffffffffffffff16815260200190815260200160002090506000600460003373ffffffffffffffffffffffffffffffffffffffff1673ffffffffffffffffffffffffffffffffffffffff168152602001908152602001600020600085815260200190815260200160002054905060008282815481101515610f6e57fe5b90600052602060002090600402019050806003016000858152602001908152602001600020600080820160009055600182016000905560028201600090556003820160009055600482016000905550508060020181600301600086815260200190815260200160002060040154815481101515610fe757fe5b90600052602060002001600090557fbbf298111db6e4e6dd070303ff0baf8bf129e8049065d9c82f353d7b387d0f0533868643604051808573ffffffffffffffffffffffffffffffffffffffff1673ffffffffffffffffffffffffffffffffffffffff16815260200184815260200183815260200182815260200194505050505060405180910390a15050505050565b60036020528160005260406000208181548110151561109257fe5b9060005260206000209060040201600091509150508060000154908060010154905082565b60001515600660009054906101000a900460ff1615151415156110d957600080fd5b7f53746f72654f776e657200000000000000000000000000000000000000000000600260003373ffffffffffffffffffffffffffffffffffffffff1673ffffffffffffffffffffffffffffffffffffffff168152602001908152602001600020541415156111af576040517f08c379a000000000000000000000000000000000000000000000000000000000815260040180806020018281038252600e8152602001807f4e6f7420417574686f72697a656400000000000000000000000000000000000081525060200191505060405180910390fd5b6000600460003373ffffffffffffffffffffffffffffffffffffffff1673ffffffffffffffffffffffffffffffffffffffff1681526020019081526020016000206000838152602001908152602001600020549050600360003373ffffffffffffffffffffffffffffffffffffffff1673ffffffffffffffffffffffffffffffffffffffff1681526020019081526020016000208181548110151561125057fe5b9060005260206000209060040201600080820160009055600182016000905560028201600061127f919061289b565b5050600460003373ffffffffffffffffffffffffffffffffffffffff1673ffffffffffffffffffffffffffffffffffffffff1681526020019081526020016000206000838152602001908152602001600020600090557f6166d19964a1d5558470383aa568ab96fd1ed9f9815f655ddc6ed34151033980338343604051808473ffffffffffffffffffffffffffffffffffffffff1673ffffffffffffffffffffffffffffffffffffffff168152602001838152602001828152602001935050505060405180910390a15050565b60001515600660009054906101000a900460ff16151514151561136e57600080fd5b7f41646d696e000000000000000000000000000000000000000000000000000000600260003373ffffffffffffffffffffffffffffffffffffffff1673ffffffffffffffffffffffffffffffffffffffff16815260200190815260200160002054141515611444576040517f08c379a000000000000000000000000000000000000000000000000000000000815260040180806020018281038252600e8152602001807f4e6f7420417574686f72697a656400000000000000000000000000000000000081525060200191505060405180910390fd5b7f496e76616c696400000000000000000000000000000000000000000000000000600260008373ffffffffffffffffffffffffffffffffffffffff1673ffffffffffffffffffffffffffffffffffffffff168152602001908152602001600020819055506114b181612598565b7f36f128fa2dab52c5654272f1fb2644c872ad1555e765f1f605a44a58c5bbb15e8143604051808373ffffffffffffffffffffffffffffffffffffffff1673ffffffffffffffffffffffffffffffffffffffff1681526020018281526020019250505060405180910390a150565b60001515600660009054906101000a900460ff16151514151561154157600080fd5b6000809054906101000a900473ffffffffffffffffffffffffffffffffffffffff1673ffffffffffffffffffffffffffffffffffffffff163373ffffffffffffffffffffffffffffffffffffffff16141515611605576040517f08c379a000000000000000000000000000000000000000000000000000000000815260040180806020018281038252600e8152602001807f4e6f7420617574686f72697a656400000000000000000000000000000000000081525060200191505060405180910390fd5b7f41646d696e000000000000000000000000000000000000000000000000000000600260008373ffffffffffffffffffffffffffffffffffffffff1673ffffffffffffffffffffffffffffffffffffffff168152602001908152602001600020819055507f723c2b747529ca7f5eb53a74808f4a8b9bf264f0fc450fd904900151da74548a8143604051808373ffffffffffffffffffffffffffffffffffffffff1673ffffffffffffffffffffffffffffffffffffffff1681526020018281526020019250505060405180910390a150565b600660009054906101000a900460ff1681565b6000809054906101000a900473ffffffffffffffffffffffffffffffffffffffff1681565b60001515600660009054906101000a900460ff16151514151561173157600080fd5b6000600460008673ffffffffffffffffffffffffffffffffffffffff1673ffffffffffffffffffffffffffffffffffffffff16815260200190815260200160002060008581526020019081526020016000205490506000600360008773ffffffffffffffffffffffffffffffffffffffff1673ffffffffffffffffffffffffffffffffffffffff168152602001908152602001600020828154811015156117d457fe5b906000526020600020906004020190506000816003016000868152602001908152602001600020905080600301548411151515611879576040517f08c379a000000000000000000000000000000000000000000000000000000000815260040180806020018281038252601a8152602001807f496e73756666696369656e742073746f636b2062616c616e636500000000000081525060200191505060405180910390fd5b600084826002015402905080341115156118fb576040517f08c379a00000000000000000000000000000000000000000000000000000000081526004018080602001828103825260128152602001807f496e73756666696369656e742066756e6473000000000000000000000000000081525060200191505060405180910390fd5b80600560008a73ffffffffffffffffffffffffffffffffffffffff1673ffffffffffffffffffffffffffffffffffffffff168152602001908152602001600020600082825401925050819055508482600301600082825403925050819055507f4f86ba3281ea3d4318310eb5ec2094a84c90c2cc7887c3656e79e25a52c6e259883389898943604051808773ffffffffffffffffffffffffffffffffffffffff1673ffffffffffffffffffffffffffffffffffffffff1681526020018673ffffffffffffffffffffffffffffffffffffffff1673ffffffffffffffffffffffffffffffffffffffff168152602001858152602001848152602001838152602001828152602001965050505050505060405180910390a15050505050505050565b60026020528060005260406000206000915090505481565b60001515600660009054906101000a900460ff161515141515611a5557600080fd5b7f41646d696e000000000000000000000000000000000000000000000000000000600260003373ffffffffffffffffffffffffffffffffffffffff1673ffffffffffffffffffffffffffffffffffffffff16815260200190815260200160002054141515611b2b576040517f08c379a000000000000000000000000000000000000000000000000000000000815260040180806020018281038252600e8152602001807f4e6f7420417574686f72697a656400000000000000000000000000000000000081525060200191505060405180910390fd5b7f53746f72654f776e657200000000000000000000000000000000000000000000600260008373ffffffffffffffffffffffffffffffffffffffff1673ffffffffffffffffffffffffffffffffffffffff1681526020019081526020016000208190555060018190806001815401808255809150509060018203906000526020600020016000909192909190916101000a81548173ffffffffffffffffffffffffffffffffffffffff021916908373ffffffffffffffffffffffffffffffffffffffff160217905550507f6343d38415903123f4b74ca53ee6cafecee6451c49b63fca067fccc8b15fc16b8143604051808373ffffffffffffffffffffffffffffffffffffffff1673ffffffffffffffffffffffffffffffffffffffff1681526020018281526020019250505060405180910390a150565b60001515600660009054906101000a900460ff161515141515611c8557600080fd5b7f53746f72654f776e657200000000000000000000000000000000000000000000600260003373ffffffffffffffffffffffffffffffffffffffff1673ffffffffffffffffffffffffffffffffffffffff16815260200190815260200160002054141515611d5b576040517f08c379a000000000000000000000000000000000000000000000000000000000815260040180806020018281038252600e8152602001807f4e6f7420417574686f72697a656400000000000000000000000000000000000081525060200191505060405180910390fd5b600360003373ffffffffffffffffffffffffffffffffffffffff1673ffffffffffffffffffffffffffffffffffffffff1681526020019081526020016000206060604051908101604052808481526020018381526020016000604051908082528060200260200182016040528015611de25781602001602082028038833980820191505090505b508152509080600181540180825580915050906001820390600052602060002090600402016000909192909190915060008201518160000155602082015181600101556040820151816002019080519060200190611e419291906128bc565b505050506001600360003373ffffffffffffffffffffffffffffffffffffffff1673ffffffffffffffffffffffffffffffffffffffff1681526020019081526020016000208054905003600460003373ffffffffffffffffffffffffffffffffffffffff1673ffffffffffffffffffffffffffffffffffffffff1681526020019081526020016000206000848152602001908152602001600020819055507fa22349e7b72c520d7ceb3b64013fd847fe847844b7d747068118365eab3d6c4733838343604051808573ffffffffffffffffffffffffffffffffffffffff1673ffffffffffffffffffffffffffffffffffffffff16815260200184815260200183815260200182815260200194505050505060405180910390a15050565b6000801515600660009054906101000a900460ff161515141515611f8157600080fd5b600460008473ffffffffffffffffffffffffffffffffffffffff1673ffffffffffffffffffffffffffffffffffffffff168152602001908152602001600020600083815260200190815260200160002054905092915050565b6000611fe4612909565b611fec612909565b60008060001515600660009054906101000a900460ff16151514151561201157600080fd5b600061201b612909565b612023612909565b60007f53746f72654f776e657200000000000000000000000000000000000000000000600260003373ffffffffffffffffffffffffffffffffffffffff1673ffffffffffffffffffffffffffffffffffffffff168152602001908152602001600020541415156120fb576040517f08c379a000000000000000000000000000000000000000000000000000000000815260040180806020018281038252600e8152602001807f4e6f7420617574686f72697a656400000000000000000000000000000000000081525060200191505060405180910390fd5b8a93506000600360008d73ffffffffffffffffffffffffffffffffffffffff1673ffffffffffffffffffffffffffffffffffffffff168152602001908152602001600020905060008090505b60058110156121eb578180549050818d0110156121d55781818d0181548110151561216e57fe5b906000526020600020906004020160000154858260058110151561218e57fe5b60200201818152505081818d018154811015156121a757fe5b90600052602060002090600402016001015484826005811015156121c757fe5b6020020181815250506121de565b600192506121eb565b8080600101915050612147565b50600060058c01905085858583869a509a509a509a509a505050505050509295509295909350565b60001515600660009054906101000a900460ff16151514151561223557600080fd5b7f53746f72654f776e657200000000000000000000000000000000000000000000600260003373ffffffffffffffffffffffffffffffffffffffff1673ffffffffffffffffffffffffffffffffffffffff1681526020019081526020016000205414151561230b576040517f08c379a000000000000000000000000000000000000000000000000000000000815260040180806020018281038252600e8152602001807f4e6f7420417574686f72697a656400000000000000000000000000000000000081525060200191505060405180910390fd5b6000600360003373ffffffffffffffffffffffffffffffffffffffff1673ffffffffffffffffffffffffffffffffffffffff16815260200190815260200160002090506000600460003373ffffffffffffffffffffffffffffffffffffffff1673ffffffffffffffffffffffffffffffffffffffff1681526020019081526020016000206000888152602001908152602001600020549050600082828154811015156123b357fe5b9060005260206000209060040201905060a06040519081016040528088815260200187815260200186815260200185815260200182600201805490508152508160030160008981526020019081526020016000206000820151816000015560208201518160010155604082015181600201556060820151816003015560808201518160040155905050806002018790806001815401808255809150509060018203906000526020600020016000909192909190915055507f2bb0908910770af9b10d6749760aa2bf54ffae739f78b7a8d61756171f50e8e033898989898943604051808873ffffffffffffffffffffffffffffffffffffffff1673ffffffffffffffffffffffffffffffffffffffff16815260200187815260200186815260200185815260200184815260200183815260200182815260200197505050505050505060405180910390a15050505050505050565b6004602052816000526040600020602052806000526040600020600091509150505481565b612534612909565b61253c61292c565b61254461292c565b60008060001515600660009054906101000a900460ff16151514151561256957600080fd5b60006125758989611f5e565b9050612582878a83612702565b9550955095509550955050939792965093509350565b60006001805490509050606060006040519080825280602002602001820160405280156125d45781602001602082028038833980820191505090505b50905060008090505b828110156126e5578373ffffffffffffffffffffffffffffffffffffffff1660018281548110151561260b57fe5b9060005260206000200160009054906101000a900473ffffffffffffffffffffffffffffffffffffffff1673ffffffffffffffffffffffffffffffffffffffff161415156126d85760018181548110151561266257fe5b9060005260206000200160009054906101000a900473ffffffffffffffffffffffffffffffffffffffff16828281518110151561269b57fe5b9060200190602002019073ffffffffffffffffffffffffffffffffffffffff16908173ffffffffffffffffffffffffffffffffffffffff16815250505b80806001019150506125dd565b5080600190805190602001906126fc92919061294f565b50505050565b61270a612909565b61271261292c565b61271a61292c565b6000806000600360008973ffffffffffffffffffffffffffffffffffffffff1673ffffffffffffffffffffffffffffffffffffffff1681526020019081526020016000208781548110151561276b57fe5b9060005260206000209060040201905088925060008090505b60058110156128885781600201805490508185011015612872576127a66129d9565b826003016000846002018488018154811015156127bf57fe5b9060005260206000200154815260200190815260200160002060a060405190810160405290816000820154815260200160018201548152602001600282015481526020016003820154815260200160048201548152505090508060000151888360058110151561282b57fe5b6020020181815250508060400151878360058110151561284757fe5b6020020181815250508060600151868360058110151561286357fe5b6020020181815250505061287b565b60019250612888565b8080600101915050612784565b5060058301925050939792965093509350565b50805460008255906000526020600020908101906128b99190612a0f565b50565b8280548282559060005260206000209081019282156128f8579160200282015b828111156128f75782518255916020019190600101906128dc565b5b5090506129059190612a0f565b5090565b60a060405190810160405280600590602082028038833980820191505090505090565b60a060405190810160405280600590602082028038833980820191505090505090565b8280548282559060005260206000209081019282156129c8579160200282015b828111156129c75782518260006101000a81548173ffffffffffffffffffffffffffffffffffffffff021916908373ffffffffffffffffffffffffffffffffffffffff1602179055509160200191906001019061296f565b5b5090506129d59190612a34565b5090565b60a06040519081016040528060008019168152602001600080191681526020016000815260200160008152602001600081525090565b612a3191905b80821115612a2d576000816000905550600101612a15565b5090565b90565b612a7491905b80821115612a7057600081816101000a81549073ffffffffffffffffffffffffffffffffffffffff021916905550600101612a3a565b5090565b9056fea165627a7a7230582031d0236cedc7e0695ba973649cbbfd8917b1354df44ba2cdb3f0d2a3aa34620c0029",
  "source": "pragma solidity ^0.5.0;\n\ncontract Marketplace {\n    \n    using SafeMath for uint;\n\n    //State variables\n    address  payable public owner;\n    address[] public storeOwners;\n    // Shows role associated with a particular address\n    mapping(address => bytes32) public roles; \n    // Shows list of stores for store owner\n    mapping(address => Store[]) public stores; \n    // Shows index (of store) in stores array for  (store owner + store name )      \n    mapping (address => mapping(bytes32 => uint)) public indexOfStores; \n    // Shows sales balance for store owner\n    mapping (address => uint) private ownerSalesBalances;\n\n    // Structure of a store\n    struct Store {\n        bytes32 name;\n        bytes32 description;\n        bytes32[] productNames;\n        mapping(bytes32 => Product)  products; // Address to Storefront to products mapping    \n    }\n\n    //Structure of a product\n    struct Product  {\n        bytes32 name;\n        bytes32 description;\n        uint price;\n        uint stockBalance;\n        uint productIndexInStore;\n    } \n    \n    // Events\n    event AdminAdded(address adminAddress, uint time);\n    event AdminRemoved(address adminAddress, uint time);\n    \n    event StoreOwnerAdded(address storeOwner, uint time);\n    event StoreOwnerRemoved(address storeOwner, uint time);\n    \n    event StoreAdded(address storeOwner, bytes32 name, bytes32 description, uint time);\n    event StoreRemoved(address storeOwner, bytes32 name, uint time);\n    \n    event ProductAddedToStore(address storeOwner, bytes32 storeName, bytes32 productName, bytes32 productDesc, uint price, uint stockBalance,uint time );\n    event ProductRemovedFromStore(address storeOwner, bytes32 storeName, bytes32 productName, uint time);    \n        \n    event ProductPurchased(address storeOwner, address buyer, bytes32 storeName, bytes32 productName, uint purchaseQty,  uint time);    \n    event StoreOwnerWithdrawsBalance(address storeOwner, uint amount, uint time);\n    \n    //Functions\n    \n    //constructor\n    constructor() public {\n        owner = msg.sender;\n        roles[msg.sender] = \"Owner\";\n    }\n\n    // Fallback function- if call does not match any function signature in this contract\n    function() external {\n        revert(\"Invalid function call\");\n    }\n\n    // Function to self-destruct contract and transfer all funds back to owner.\n    function destroyContract() public {\n        selfdestruct(owner);\n   }\n\n    //Implement circuit breaker\n    bool public contractPaused = false;\n    function circuitBreaker() public  { // onlyOwner can call\n        require(owner == msg.sender);\n        if (contractPaused == false) { contractPaused = true; }\n        else { contractPaused = false; }\n    }\n\n    // If the contract is paused, stop the modified function\n    // Attach this modifier to all public functions\n    modifier checkIfPaused() {\n        require(contractPaused == false);\n        _;\n    }\n\n    //Two functions related to Owner - addAdmin, removeAdmin\n    /**\n    * @notice Add `newAdmin` as admin.\n    * @dev This function adds an admin\n    * @param newAdmin - address of admin to add\n    */\n    function addAdmin(address newAdmin) public checkIfPaused() {\n        require(msg.sender == owner, \"Not authorized\");\n        roles[newAdmin] = \"Admin\";\n        emit AdminAdded(newAdmin, block.number);\n    }    \n\n    /**\n    * @dev This function removes an admin\n    * @param admin - address of admin to remove\n    */    \n    function removeAdmin(address admin) public checkIfPaused() {\n        require(msg.sender == owner, \"Not authorized\");\n        roles[admin] = \"Invalid\"; \n        emit AdminRemoved(admin, block.number);\n\n    }   \n    \n    // Two functions related to Admin- addStoreOwner, removeStoreOwner, \n    /**\n    * @dev This function adds a store owner\n    * @param newStoreOwner - address of new store owner\n    */       \n    function addStoreOwner(address newStoreOwner) public checkIfPaused() {\n        require(roles[msg.sender] == \"Admin\", \"Not Authorized\");\n        roles[newStoreOwner] = \"StoreOwner\";\n        storeOwners.push(newStoreOwner);\n        emit StoreOwnerAdded(newStoreOwner, block.number);\n    }\n\n    /**\n    * @dev This function removes a store owner\n    * @param storeOwner - address of store owner to remove\n    */    \n    function removeStoreOwner(address storeOwner) public checkIfPaused() {\n        require(roles[msg.sender] == \"Admin\", \"Not Authorized\");\n        roles[storeOwner] = \"Invalid\";\n        removeAddress(storeOwner);\n        emit StoreOwnerRemoved(storeOwner, block.number);\n    }\n    \n    /* Six functions related to Store Owner - addStore, removeStore, addProductToStore,\n    * removeProductFromStore, purchaseItem, withdrawSalesBalance\n    */\n    /**\n    * @dev This function creates a new store. The new store is \n    * added to stores mapping, which maintains list of stores for each \n    * store owner. The index of store added is captured in\n    * indexofStores mapping, for ready reference.\n    * @param _name - name of the store \n    * @param _description - short description of store\n    */\n    function addStore(bytes32 _name, bytes32 _description) public checkIfPaused() {\n        require(roles[msg.sender] == \"StoreOwner\", \"Not Authorized\");\n        stores[msg.sender].push(Store({\n            name: _name,\n            description: _description,\n            productNames : new bytes32[](0)\n        }));\n        indexOfStores[msg.sender][_name] = stores[msg.sender].length - 1;\n        emit StoreAdded(msg.sender,_name, _description,block.number);\n    }\n\n    /**\n    * @dev This function removes a store \n    * @param name - name of store to remove.\n    * The store is removed from stores array, and also corresponding index entry is removed in indexOfStores\n    */ \n    function removeStore(bytes32 name) public checkIfPaused() {\n        require(roles[msg.sender] == \"StoreOwner\", \"Not Authorized\");\n        uint storeIndex = indexOfStores[msg.sender][name];\n        delete stores[msg.sender][storeIndex];\n        delete indexOfStores[msg.sender][name];\n        emit StoreRemoved(msg.sender,name,block.number);\n    }\n    \n    /**\n    * @dev This function adds a new product to store. \n    * Also a new entry is added to productNames array in that store.\n    * @param _storeName - name of the store \n    * @param _productName - name of product to add to store\n    * @param _productDesc - description of product\n    * @param _price - price of product\n    * @param _stockBalance - how many units of that product are there in store/inventory\n    */\n    function addProductToStore(bytes32 _storeName, bytes32 _productName, bytes32 _productDesc, uint _price, uint _stockBalance) \n    public checkIfPaused() {\n        require(roles[msg.sender] == \"StoreOwner\", \"Not Authorized\");\n        Store[] storage storesOwned = stores[msg.sender];\n        uint storeIndex = indexOfStores[msg.sender][_storeName]; \n        Store storage thisStore = storesOwned[storeIndex];        \n        \n        thisStore.products[_productName] = Product({\n            name: _productName,\n            description: _productDesc,\n            price: _price,\n            stockBalance : _stockBalance,\n            productIndexInStore: thisStore.productNames.length\n        });\n        thisStore.productNames.push(_productName);\n        emit ProductAddedToStore(msg.sender,  _storeName,  _productName, _productDesc, _price, _stockBalance,block.number );    \n\n    }\n    \n    /**\n    * @dev This function removes a product from a store \n    * @param _storeName - name of store from which product has to be removed\n    * @param _productName - name of product to be removed from store\n    * The product is removed from products array for that store.\n    */ \n    function removeProductFromStore(bytes32 _storeName,bytes32 _productName) public checkIfPaused() {\n\n        Store[] storage storesOwned = stores[msg.sender];\n        uint storeIndex = indexOfStores[msg.sender][_storeName]; \n        Store storage thisStore = storesOwned[storeIndex];\n        \n        delete thisStore.products[_productName];\n        delete thisStore.productNames[thisStore.products[_productName].productIndexInStore];\n        emit ProductRemovedFromStore(msg.sender,_storeName, _productName, block.number);\n    }\n    \n    /**\n    * @dev This function enables a user to purchase an item from a store\n    * @param _storeOwner - name of store owner \n    * @param _storeName - name of store from which product to be purchased\n    * @param _productName - name of product to be removed from store\n    * @param _purchaseQty - quantity of product(s) to be purchased\n    * The product is removed from products array for that store.\n    */ \n    function purchaseItem(address _storeOwner, bytes32 _storeName, bytes32 _productName, uint _purchaseQty) \n    public payable checkIfPaused() {\n        \n        //Get current product from products array in store         \n        uint storeIndex = indexOfStores[_storeOwner][_storeName];        \n        Store storage thisStore = stores[_storeOwner][storeIndex];\n        Product storage currentProduct = thisStore.products[_productName];\n        \n        require(_purchaseQty <= currentProduct.stockBalance, \"Insufficient stock balance\");\n        \n        uint totalPrice = currentProduct.price * _purchaseQty;\n        \n        require(msg.value > totalPrice, \"Insufficient funds\");\n        \n        ownerSalesBalances[_storeOwner] += totalPrice;\n        \n        currentProduct.stockBalance -= _purchaseQty;\n        \n        emit ProductPurchased(_storeOwner, msg.sender, _storeName, _productName, _purchaseQty, block.number);\n        \n    }\n\n    /**\n    * @dev This function enables a storeowner to withdraw his/her sales proceeds\n    * The owner sales balance is updated to zero\n    */ \n    function withdrawSalesBalance() public checkIfPaused() {\n        require (roles[msg.sender] == \"StoreOwner\", \"Not Authorized\");\n        \n        uint amountForWithdrawal = ownerSalesBalances[msg.sender];\n        \n        ownerSalesBalances[msg.sender] = 0;\n        msg.sender.transfer(amountForWithdrawal);\n        \n        emit StoreOwnerWithdrawsBalance(msg.sender, amountForWithdrawal, block.number);\n        \n    }\n\n    // Getter functions\n    /**\n    * @dev This function gets all the stores owned by a particular store owner\n    * @param _storeOwner - address of the store owner\n    * @param _nextIndex - next index used for iteratively getting all the stores of a particular store owner\n    */\n    function getAllOwnerStores(address _storeOwner, uint _nextIndex) public \n    view checkIfPaused()\n    returns (address, bytes32[5] memory, bytes32[5] memory, uint, bool)    \n    {\n        address storeOwnerAddr;\n        bytes32[5] memory storeNames;\n        bytes32[5] memory storeDescription;        \n        bool endOfStoresReached;\n      \n \n        require(roles[msg.sender] == \"StoreOwner\", \"Not authorized\");\n  \n        storeOwnerAddr = _storeOwner;\n\n        Store[] storage ownerStores = stores[_storeOwner]; \n                \n        for (uint i = 0; i<5; i++)\n        {\n            if (_nextIndex + i < ownerStores.length)\n            {\n                storeNames[i] = ownerStores[_nextIndex + i].name; \n                storeDescription[i] = ownerStores[_nextIndex + i].description;\n            }\n            else\n            {\n                endOfStoresReached = true;\n                break;\n            } \n        }\n        uint nextIndex = _nextIndex + 5;\n        return (storeOwnerAddr, storeNames, storeDescription, nextIndex, endOfStoresReached);\n    }\n\n    /**\n    * @dev This function gets all the products in a store\n    * @param _storeOwner - address of the store owner\n    * @param _storeName - name of the store from which to get products\n    * @param _nextIndex - next index used for iteratively getting all the products in the store\n    */\n    function getProductsInStore(address _storeOwner,bytes32 _storeName,uint _nextIndex) public \n    view checkIfPaused()\n    returns (bytes32[5] memory ,uint[5] memory ,uint[5] memory , uint  ,bool  ) {\n        uint storeIndex = getStoreIndex(_storeOwner,_storeName);\n        return getItemDetails(_nextIndex, _storeOwner, storeIndex);\n    }    \n\n    // Utility & helper functions\n    /* Commented out for now\n    function compareStrings (bytes32  a, bytes32  b) private view returns (bool){\n        return keccak256(abi.encodePacked(a)) == keccak256(abi.encodePacked(b));\n    } \n    */   \n  /**\n    * @dev This function gets the details of products in a store. Helper for the 'getProductsInStore' function\n    * @param _storeOwner - address of the store owner\n    * @param _storeIndex - index of the store\n    * @param _nextIndex - next index used for iteratively getting all the items in the store\n    */\n    function getItemDetails(uint _nextIndex, address _storeOwner, uint _storeIndex)\n    private view\n    returns (bytes32[5] memory productName , uint[5] memory productPrice, uint[5] memory quantityLeft, uint nextIndex, bool endOfItemsReached) //bytes32 [5],\n    {\n        Store storage store = stores[_storeOwner][_storeIndex];\n        nextIndex = _nextIndex;\n\n        for (uint i = 0; i<5; i++)\n        {\n            if (nextIndex + i < store.productNames.length)\n            {\n                Product memory product = store.products[store.productNames[nextIndex + i]];\n\n                productName[i] = product.name; \n                productPrice[i] = product.price;\n                quantityLeft[i] = product.stockBalance;\n            }\n            else\n            {\n                endOfItemsReached = true;\n                break;\n            } \n        }\n\n        nextIndex += 5;\n    }\n\n    /**\n    * @dev This function gets the index of a store form the storeIndices mapping  \n    * @param _storeOwner - address of the store owner\n    * @param _storeName - name of the store, whose index is to be retrieved\n    */    \n    function getStoreIndex(address _storeOwner, bytes32 _storeName) public view \n    checkIfPaused() returns(uint){\n\n        return indexOfStores[_storeOwner][_storeName];\n    }\n\n    /**\n    * @dev This function removes a store owner from storeowners array\n    * @param _address - address of store owner to remove\n    */     \n    function removeAddress(address _address) private {\n        uint arrayLength = storeOwners.length;\n        address[] memory tempArray = new address[](0);\n        for(uint i = 0; i < arrayLength; i++) {\n            if(storeOwners[i] != _address) {\n                tempArray[i] = storeOwners[i];\n            }\n            \n        }\n        storeOwners = tempArray;\n    }\n    \n\n}\n\nlibrary SafeMath {\n    /**\n    * @dev Multiplies two unsigned integers, reverts on overflow.\n    */\n    function mul(uint256 a, uint256 b) internal pure returns (uint256) {\n        // Gas optimization: this is cheaper than requiring 'a' not being zero, but the\n        // benefit is lost if 'b' is also tested.\n        // See: https://github.com/OpenZeppelin/openzeppelin-solidity/pull/522\n        if (a == 0) {\n            return 0;\n        }\n\n        uint256 c = a * b;\n        require(c / a == b);\n\n        return c;\n    }\n\n    /**\n    * @dev Integer division of two unsigned integers truncating the quotient, reverts on division by zero.\n    */\n    function div(uint256 a, uint256 b) internal pure returns (uint256) {\n        // Solidity only automatically asserts when dividing by 0\n        require(b > 0);\n        uint256 c = a / b;\n        // assert(a == b * c + a % b); // There is no case in which this doesn't hold\n\n        return c;\n    }\n\n    /**\n    * @dev Subtracts two unsigned integers, reverts on overflow (i.e. if subtrahend is greater than minuend).\n    */\n    function sub(uint256 a, uint256 b) internal pure returns (uint256) {\n        require(b <= a);\n        uint256 c = a - b;\n\n        return c;\n    }\n\n    /**\n    * @dev Adds two unsigned integers, reverts on overflow.\n    */\n    function add(uint256 a, uint256 b) internal pure returns (uint256) {\n        uint256 c = a + b;\n        require(c >= a);\n\n        return c;\n    }\n\n    /**\n    * @dev Divides two unsigned integers and returns the remainder (unsigned integer modulo),\n    * reverts when dividing by zero.\n    */\n    function mod(uint256 a, uint256 b) internal pure returns (uint256) {\n        require(b != 0);\n        return a % b;\n    }\n}\n\n",
  "sourcePath": "/Users/prabhueshwarla/ethereum/truffle/consensys/react-market/contracts/Marketplace.sol",
  "compiler": {
    "name": "solc",
    "version": "0.5.0+commit.1d4f565a.Emscripten.clang"
  },
  "schemaVersion": "3.0.0",
  "updatedAt": "2019-01-27T06:27:46.235Z",
  "devdoc": {
    "methods": {
      "addAdmin(address)": {
        "details": "This function adds an admin",
        "params": {
          "newAdmin": "- address of admin to add"
        }
      },
      "addProductToStore(bytes32,bytes32,bytes32,uint256,uint256)": {
        "details": "This function adds a new product to store.  Also a new entry is added to productNames array in that store.",
        "params": {
          "_price": "- price of product",
          "_productDesc": "- description of product",
          "_productName": "- name of product to add to store",
          "_stockBalance": "- how many units of that product are there in store/inventory",
          "_storeName": "- name of the store "
        }
      },
      "addStore(bytes32,bytes32)": {
        "details": "This function creates a new store. The new store is  added to stores mapping, which maintains list of stores for each  store owner. The index of store added is captured in indexofStores mapping, for ready reference.",
        "params": {
          "_description": "- short description of store",
          "_name": "- name of the store "
        }
      },
      "addStoreOwner(address)": {
        "details": "This function adds a store owner",
        "params": {
          "newStoreOwner": "- address of new store owner"
        }
      },
      "getAllOwnerStores(address,uint256)": {
        "details": "This function gets all the stores owned by a particular store owner",
        "params": {
          "_nextIndex": "- next index used for iteratively getting all the stores of a particular store owner",
          "_storeOwner": "- address of the store owner"
        }
      },
      "getProductsInStore(address,bytes32,uint256)": {
        "details": "This function gets all the products in a store",
        "params": {
          "_nextIndex": "- next index used for iteratively getting all the products in the store",
          "_storeName": "- name of the store from which to get products",
          "_storeOwner": "- address of the store owner"
        }
      },
      "getStoreIndex(address,bytes32)": {
        "details": "This function gets the index of a store form the storeIndices mapping  ",
        "params": {
          "_storeName": "- name of the store, whose index is to be retrieved",
          "_storeOwner": "- address of the store owner"
        }
      },
      "purchaseItem(address,bytes32,bytes32,uint256)": {
        "details": "This function enables a user to purchase an item from a store",
        "params": {
          "_productName": "- name of product to be removed from store",
          "_purchaseQty": "- quantity of product(s) to be purchased The product is removed from products array for that store.",
          "_storeName": "- name of store from which product to be purchased",
          "_storeOwner": "- name of store owner "
        }
      },
      "removeAdmin(address)": {
        "details": "This function removes an admin",
        "params": {
          "admin": "- address of admin to remove"
        }
      },
      "removeProductFromStore(bytes32,bytes32)": {
        "details": "This function removes a product from a store ",
        "params": {
          "_productName": "- name of product to be removed from store The product is removed from products array for that store.",
          "_storeName": "- name of store from which product has to be removed"
        }
      },
      "removeStore(bytes32)": {
        "details": "This function removes a store ",
        "params": {
          "name": "- name of store to remove. The store is removed from stores array, and also corresponding index entry is removed in indexOfStores"
        }
      },
      "removeStoreOwner(address)": {
        "details": "This function removes a store owner",
        "params": {
          "storeOwner": "- address of store owner to remove"
        }
      },
      "withdrawSalesBalance()": {
        "details": "This function enables a storeowner to withdraw his/her sales proceeds The owner sales balance is updated to zero"
      }
    }
  },
  "userdoc": {
    "methods": {
      "addAdmin(address)": {
        "notice": "Add `newAdmin` as admin."
      }
    }
  }
}